:020000040800F2
:1000000028040020C1010008890C00088B0C00089E
:100010008D0C00088F0C0008910C000800000000F7
:10002000000000000000000000000000930C000829
:10003000950C000800000000970C00089B0C0008BD
:10004000DB010008DB010008DB010008DB01000820
:10005000DB010008DB010008DB010008DB01000810
:10006000DB010008DB010008DB010008DB01000800
:10007000DB010008DB010008DB010008DB010008F0
:10008000DB010008DB010008DB010008DB010008E0
:10009000DB010008DB010008DB010008DB010008D0
:1000A000DB010008DB010008DB010008DB010008C0
:1000B000DB010008DB010008DB010008DB010008B0
:1000C000DB010008DB010008DB010008DB010008A0
:1000D000DB010008DB010008DB010008DB01000890
:1000E000DB010008DB010008DB010008DB01000880
:1000F000DB010008DB010008DB010008DB01000870
:10010000DB010008DB010008DB010008DB0100085F
:10011000DB010008DB010008DB010008DB0100084F
:10012000DB010008DB010008DB010008DB0100083F
:10013000DB010008DB010008DB010008DB0100082F
:10014000DB010008DB010008DB010008DB0100081F
:10015000DB010008DB010008DB010008DB0100080F
:10016000DB010008DB010008DB010008DB010008FF
:10017000DB010008DB010008DB010008DB010008EF
:10018000DB010008DB010008DB010008DB010008DF
:10019000DB010008DB010008DB010008DB010008CF
:1001A0000000000000000000DB010008DFF80CD0B8
:1001B00000F046FE00480047510C000828040020CB
:1001C0000648804706480047FEE7FEE7FEE7FEE7F1
:1001D000FEE7FEE7FEE7FEE7FEE7FEE7630D000849
:1001E000AD010008774910B5884206D101210846C3
:1001F00000F09BFA002101205BE07349884206D1A0
:100200000121022000F091FA0021022051E06F4903
:10021000884206D10121042000F087FA0021042041
:1002200047E06B49884206D10121082000F07DFAA1
:10023000002108203DE06749884206D101211020B5
:1002400000F073FA0021102033E06349884206D1A0
:100250000121202000F069FA0021202029E05F49D7
:10026000884206D10121402000F05FFA00214020A1
:100270001FE05B49884206D10121802000F055FA39
:100280000021802015E05749884202D101218415C0
:100290000AE05549884202D10121441504E053493E
:1002A00088420AD101210415204600F03EFA0021BF
:1002B0002046BDE8104000F038BA10BDF0B500226D
:1002C00001274FF0030C0B6807FA02F52B40AB42F5
:1002D0002CD1066853000CFA03F4A64306600E798D
:1002E000D0F800E09E4046EA0E0606600E79012E28
:1002F00001D0022E12D18668A64386604E79D0F8CE
:1003000008E09E4046EA0E0686604668AE434660B8
:1003100045688E799640B6B235434560C568A543B9
:10032000C560CC799C40C3681C43C460521C102A31
:10033000C9D3F0BD4FF6FF71016000210171417119
:100340008171C171704708B541F480320092C26179
:10035000C1610099C161C169C069009008BD0246D0
:10036000002012690A4200D001207047006980B263
:1003700070470246002052690A4200D001207047AF
:10038000406980B2704701837047418370470AB16A
:1003900001837047418370474161704742694A4019
:1003A000426170474B07DB0E9A40C90810B500EB5D
:1003B0008100016A0F249C40A1430162016A11433C
:1003C000016210BD0000024000040240000802402B
:1003D000000C0240001002400014024000180240CD
:1003E000001C02400020024000240240002802407D
:1003F000F948016841F001010160F74A0021083223
:1004000011600268F54B1A400260031DF44A1A603D
:10041000F14BF44A84331A60F14A103A1B1D1A60FA
:10042000026822F480220260EB480C300160181D43
:1004300001607047E8490022891C0A700870704703
:1004400002460020510901290CD002290CD0E249B2
:100450007431096802F01F02012393400B4200D05F
:1004600001207047DC49F4E7DB497031F1E718B54A
:1004700000204FF4A04400903120FFF7E1FF0099E5
:10048000491C0091A14201D00028F5D03120FFF78E
:10049000D7FF002800D0012018BDCF4A116821F0F5
:1004A000F80141EAC00010607047CF49086070470A
:1004B000C949002270310A700A70012802D004284C
:1004C00001D1052008707047C8490860704741EAAB
:1004D00082115A0810B5C64B029C03EB024211432D
:1004E000014341EA0460BC49091D086010BDBE49D2
:1004F00008667047800140EA0160B74940EA02702F
:10050000843108607047B84988667047800140EAC6
:100510000160B14940EA0270883108607047B24911
:1005200008677047B049C8647047AB4B08331A6816
:10053000084322F0EC62104318607047A64B083362
:100540001A68084322F07842104318607047A24AA4
:100550000832116821F003010143116070479E4881
:100560000830006800F00C0070479B4A08321168A0
:1005700021F0F001014311607047974A0832116879
:1005800021F4E051014311607047934A0832116829
:1005900021F4604141EAC0001060704770B58E4B95
:1005A00008331968934C11F00C0104D0924E0429C1
:1005B00003D0082903D004601BE0066019E0864AD6
:1005C000121D1168C1F38055116801F03F0115B18A
:1005D000B6FBF1F101E0B4FBF1F114681268C4F369
:1005E00088146143C2F30142521C5200B1FBF2F184
:1005F000016019680F2202EA1111804A545C0168F7
:10060000E14041601C68072505EA9424145D21FA45
:1006100004F484601B6805EA5333D25CD140C160A6
:1006200070BDC0F30121032908D16B4B0833196851
:10063000734A21F4F81102400A431A606649703186
:100640000A68C0F30B0002430A60704767494439E7
:100650000860704765494039086070476249C1F8D1
:100660005C0170475C4A8C321168401E21F01F010A
:10067000014311607047584A8C3211686FF0FF03D4
:1006800021F4F85103EB0020084310607047524AF0
:100690008C32116821F440110143116070474E4AB9
:1006A0008C32116821F440010143116070474A4ABD
:1006B0008C32116821F44031014311607047514977
:1006C000C1F8E0017047444A30320029116801D076
:1006D000014300E08143116070473F4A34320029F2
:1006E000116801D0014300E08143116070473A4A2C
:1006F00038320029116801D0014300E081431160C4
:100700007047354A40320029116801D0014300E0AA
:10071000814311607047304A44320029116801D08A
:10072000014300E08143116070472B4A10320029D9
:10073000116801D0014300E0814311607047264AEF
:1007400014320029116801D0014300E08143116097
:100750007047214A18320029116801D0014300E096
:100760008143116070471C4A20320029116801D072
:10077000014300E0814311607047174A2432002989
:10078000116801D0014300E0814311607047124AB3
:1007900050320029116801D0014300E0814311600B
:1007A00070470D4A54320029116801D0014300E01E
:1007B000814311607047084A58320029116801D0FE
:1007C000014300E0814311607047034A6032002911
:1007D000116819D0014318E000380240FFFFF6EA23
:1007E000103000240030002000004742800E4742B5
:1007F0000000FFFF0024F40040787D01000000208D
:10080000FFFCFF0F00104742814311607047194AF7
:100810000029116801D0014300E081431160704755
:1008200014490C310128086803D020F00800086042
:10083000704740F00800FAE70E4A573A002911784D
:1008400001D0014300E08143117070470948103026
:10085000016841F08071016070470146054A00203F
:10086000583A12680A4200D00120704701495639AF
:100870000870704764380240CD4910B5884206D1EF
:1008800001211020FFF779FF0021102020E0C94945
:10089000884202D101214C0429E0C749884202D193
:1008A00001218C0423E0C549884202D10121CC04F6
:1008B0001DE0C349884202D101210C0517E0C1495E
:1008C000884209D101212020FFF757FF0021202075
:1008D000BDE81040FFF751BFBB49884202D101215A
:1008E0008C0704E0B94988420AD101214405204619
:1008F000FFF739FF2046BDE810400021FFF733BF66
:1009000010BD7FB50446008A0D46C98820F44050CA
:1009100001432182A08941F20C618843A9882A8978
:1009200011436A8902431143A181A08A20F44071D6
:10093000A8890843A0826846FFF730FE9C4884429D
:1009400002D0A048844201D1039800E00298A18916
:10095000090400EBC00101EB0010296801D5490032
:1009600000E08900B0FBF1F06422B0FBF2F1090174
:100970000B096FF018056B4300EB8300A3891D047E
:100980004FF0320306D503EBC000B0FBF2F000F0ED
:10099000070005E003EB0010B0FBF2F000F00F00E1
:1009A000084320817FBD4FF41651016000218180F2
:1009B000C18001810C2242818181704710B5028A79
:1009C0004C8822F470630A8822438C88C9880C43BF
:1009D00022431A43028210BD0021018041808180A0
:1009E000C18070470029818902D041F4005101E0A3
:1009F00021F4005181817047028B02F47F4202830F
:100A0000028B0A43028370470029818902D041F496
:100A1000004101E0C1F30E01818170470029818A04
:100A200002D041F4006101E021F40061818270474D
:100A3000C1F30801818070478088C0F308007047C7
:100A4000028A22F00F020282028A0A43028270475F
:100A50000029818902D041F0020101E021F0020168
:100A600081817047828922F40062828182890A43EF
:100A700082817047028A22F020020282028A0A439F
:100A8000028270470029018A02D041F4804101E0CE
:100A900021F4804101827047818941F00101818107
:100AA00070470029818A02D041F0080101E021F05D
:100AB000080181827047028BD2B20283028B42EA24
:100AC0000121018370470029818A02D041F0200171
:100AD00001E021F02001818270470029818A02D043
:100AE00041F0100101E021F0100181827047828AFB
:100AF00022F004028282828A0A438282704700299D
:100B0000818A02D041F0020101E021F002018182DC
:100B10007047002A828A01D00A4300E08A43828219
:100B2000704710B5C1F3421301F01F040121A14029
:100B3000012B07D0022B07D01430002A026805D001
:100B40000A4304E00C30F8E71030F6E78A4302600D
:100B500010BD0246002012880A4200D001207047D2
:100B6000C9430180704770B501F01F0501260024BC
:100B7000C1F3421306FA05F2012B0FD0022B0FD05E
:100B8000838A4FEA11210088134206FA01F600EA2F
:100B9000060001D000B10124204670BD8389F0E732
:100BA000038AEEE70A0A01219140C9430180704798
:100BB000001001400044004000480040004C00404C
:100BC000005000400014014000780040007C0040CC
:100BD00030B5012187B00846FFF775FD01211020CF
:100BE000FFF799FD264D072209212846FFF7DAFB7A
:100BF00007220A212846FFF7D5FB00248DF816406E
:100C000002218DF8141001208DF817004FF4C060F8
:100C100004908DF8151004A92846FFF74FFB4FF4F8
:100C2000E130ADF804400090ADF80640ADF8084062
:100C3000ADF80C400C20134CADF80A006946204674
:100C4000FFF75FFE01212046FFF7CCFE07B030BD65
:100C5000FFF7BEFF0B4C20212046FFF77AFF00284C
:100C6000F9D02046FFF7E8FEC1B22046FFF7E0FECC
:100C700040212046FFF76DFF0028F9D0EBE7000088
:100C800000000240001001407047FEE7FEE7FEE76B
:100C9000FEE7704770477047704710B5FFF7FCFFDD
:100CA00010BD00001CB500215B4A00910191106845
:100CB00040F4803010604FF4A043106800F400301E
:100CC00001900098401C0090019810B9009898423B
:100CD000F3D11068800342D5012001904E48403086
:100CE000016841F0805101604C49086840F440407F
:100CF00008604948083003680360036843F4004310
:100D00000360036843F4A0530360041F444B236053
:100D1000136843F08073136013689B01FCD50A6865
:100D200042F480320A604A68D203FCD50A6842F471
:100D300000320A604A689203FCD53A4A40F20571D3
:100D40001160016821F003010160016841F00201B6
:100D500001600168C1F381010229FAD11CBD019132
:100D60001CBD314810B5016841F4700101602A488A
:100D7000016841F001010160274A00210832116039
:100D800002682A4B1A400260031D294A1A60026851
:100D900022F48022026020480C300160FFF782FFBD
:100DA00021494FF000608039086010BD70B51A4DC0
:100DB000083528681F4B204910F00C0004D01F4E46
:100DC000042803D0082803D00B601BE00E6019E054
:100DD000114A121D1068C0F38054106800F03F00E3
:100DE00014B1B6FBF0F001E0B3FBF0F01368126849
:100DF000C3F388135843C2F30142521C5200B0FBA4
:100E0000F2F0086028680C4AC0F30310121D105C51
:100E10000A68C2400A6070BD00380240007000409D
:100E2000195A4007003C024088ED00E0FFFFF6FE43
:100E3000103000240024F4001000002040787D01D0
:100E4000064C074D06E0E06840F0010394E8070017
:100E500098471034AC42F6D3FFF7ACF9840E000883
:100E6000A40E000802E008C8121F08C1002AFAD127
:100E700070477047002001E001C1121F002AFBD11A
:100E800070470000A40E00080000002024000000AD
:100E9000640E0008C80E00082400002004040000AE
:100EA000740E0008000000000102030401020304A4
:100EB000060708090095BA0A0000000000000000BB
:080EC000010203040607080902
:04000005080001AD41
:00000001FF
